:100000000C94C7010C94E4010C94E4010C94E401F9
:100010000C94E4010C94E4010C94E4010C94E401CC
:100020000C94E4010C94E4010C94E4010C94E401BC
:100030000C94E4010C94E4010C94E4010C94E401AC
:100040000C94E4010C94E4010C94E4010C94E4019C
:100050000C94E4010C94E4010C94E4010C94E4018C
:100060000C94E4010C94E40105A84CCDB2D44EB933
:100070003836A9020C50B9918688083CA6AAAA2A4B
:10008000BE000000803F00000000000000000000F3
:100090005F000000000000000700070000000014DF
:1000A0007F147F14000000242A7F2A1200000023FE
:1000B0001308646200000036495522500000000019
:1000C000050300000000001C224100000000004168
:1000D000221C0000000000082A1C2A08000000085A
:1000E000083E0808000000A06000000000000008B2
:1000F0000808080800000060600000000000002000
:10010000100804020000003E5149453E0000000076
:10011000427F400000000062514949460000002231
:10012000414949360000001814127F1000000027D2
:10013000454545390000003C4A494930000000016E
:1001400071090503000000364949493600000006E0
:100150004949291E0000000036360000000000005A
:10016000AC6C0000000000081422410000000014E4
:1001700014141414000000412214080000000002AE
:1001800001510906000000324979413E0000007E1D
:100190000909097E0000007F494949360000003EF8
:1001A000414141220000007F4141221C0000007FAC
:1001B000494949410000007F090909010000003E4A
:1001C000414151720000007F0808087F0000004193
:1001D0007F4100000000002040413F010000007FFF
:1001E000081422410000007F404040400000007F92
:1001F000020C027F0000007F0408107F0000003E18
:100200004141413E0000007F090909060000003E0F
:100210004151215E0000007F091929460000002697
:100220004949493200000001017F01010000003FFF
:100230004040403F0000001F2040201F0000003FC2
:100240004038403F000000631408146300000003BE
:100250000478040300000061514945430000007F19
:10026000414100000000000204081020000000418D
:10027000417F000000000004020102040000008031
:100280008080808000000001020400000000002047
:10029000545454780000007F48444438000000382B
:1002A00044442800000000384444487F00000038DF
:1002B00054545418000000087E0902000000001881
:1002C000A4A4A47C0000007F0804047800000000BF
:1002D0007D00000000000080847D00000000007FA1
:1002E00010284400000000417F4000000000007C16
:1002F000041804780000007C08047C00000000382A
:1003000044443800000000FC2424180000000018B9
:100310002424FC00000000007C08040000000048C9
:1003200054542400000000047F4400000000003CFE
:1003300040407C000000001C2040201C0000003CCD
:100340004030403C00000044281028440000001CBD
:10035000A0A07C000000004464544C44000000084D
:1003600036410000000000007F0000000000004156
:100370003608000000000002010102010000000236
:1003800005050200000000FFFFFFFFFF0000112431
:100390001FBECFEFD8E0DEBFCDBF12E0A0E0B1E0DE
:1003A000EEE3FFE202C005900D92AA31B107D9F742
:1003B00012E0AAE1B2E001C01D92A132B107E1F75B
:1003C0000E94B10E0C949D170C9400008CE284B92D
:1003D00080E58CBD81E08DBD08958EBD0DB407FE16
:1003E000FDCF8EB5089580E184B980E48CBD089579
:1003F0000DB407FEFDCF8EB50895559A5D9808950A
:10040000559A5D9A0895569A5E980895569A5E9AFE
:100410000895579A5F980895579A5F9A0895549A45
:100420005C9A0895549A5C980895DF93CF930F9245
:10043000CDB7DEB789830E9403020E94FD01898146
:100440000E94ED010E9400020F90CF91DF9108956C
:10045000DF93CF930F92CDB7DEB789830E94060258
:100460000E94FD0189810E94ED010E9400020F900F
:10047000CF91DF9108951F93DF93CF930F92CDB764
:10048000DEB7182F99830E9406020E94FD01898120
:100490000E94ED01812F0E94ED010E9400020F9049
:1004A000CF91DF911F9108950F931F93CF93DF9307
:1004B000EC018B018AE20E941502CE010E943B02F0
:1004C000C8010E943B02DF91CF911F910F910895C7
:1004D0000F931F93CF93DF93EC018B018BE20E946C
:1004E0001502CE010E943B02C8010E943B02DF912F
:1004F000CF911F910F91089580931E02882369F474
:1005000080EF90E090931D0280931C0280E491E0C4
:100510009093200280931F020895813061F480E45B
:1005200091E090931D0280931C0280EF90E09093E5
:10053000200280931F020895CF93DF939C01EB016B
:10054000B9010E945402CE01BE010E9468028CE2F1
:100550000E941502DF91CF910895CF93DF93EA01B6
:1005600020911E02222351F0213069F420911C02B7
:1005700030911D02281B390BCB01B9010E949C024E
:10058000CE010E943B02DF91CF9108952F923F92BE
:100590004F925F926F927F928F929F92AF92BF9293
:1005A000CF92DF92EF92FF920F931F93DF93CF933F
:1005B00000D000D0CDB7DEB76C017B013A01490114
:1005C00098015401A61AB70A481B590B5C834B8348
:1005D00057FF05C0509541955F4F5C834B83C61410
:1005E000D70420F451E0252E312C03C022242A9474
:1005F000322CB7FE04C0B094A194B108B394B09467
:10060000A194B108B394E814F90420F441E0442E15
:10061000512C03C044244A94542C0B811C810A0D94
:100620001B1DC601B701A90129833A830E94AD02AF
:10063000C801880F991F29813A818A159B0564F0AA
:10064000C614D70499F00A0D1B1DC20CD31CEB81F4
:10065000FC81E817F9072CF3E814F90439F04B8111
:100660005C81040F151FE40CF51CDBCF0F900F907D
:100670000F900F90CF91DF911F910F91FF90EF900E
:10068000DF90CF90BF90AF909F908F907F906F90B2
:100690005F904F903F902F900895CF92DF92EF920E
:1006A000FF920F931F93CF93DF937C018B01EA019D
:1006B000690180911E028823C9F4BA016E0D7F1D65
:1006C000C7010E945402C801B8010E9468028CE26E
:1006D0000E94150200E010E005C0C6010E943B0226
:1006E0000F5F1F4F0C171D07C0F31EC08130E1F4D0
:1006F000CB010E94540260911C0270911D026E1980
:100700007F09CB018C1B9D0B0E9468028CE20E942A
:10071000150200E010E005C0C6010E943B020F5F19
:100720001F4F0C171D07C0F3DF91CF911F910F9141
:10073000FF90EF90DF90CF900895CF92DF92EF92ED
:10074000FF920F931F93CF93DF937C018B01EA01FC
:10075000690180911E028823C9F4C701B7010E9474
:100760005402BE01600F711FC8010E9468028CE232
:100770000E94150200E010E005C0C6010E943B0285
:100780000F5F1F4F0C171D07C0F31FC08130E9F426
:10079000BA01600F711FC8010E94540260911C02CF
:1007A00070911D026E197F09CB010E9468028CE2D4
:1007B0000E94150200E010E005C0C6010E943B0245
:1007C0000F5F1F4F0C171D07C0F3DF91CF911F91D3
:1007D0000F91FF90EF90DF90CF900895AF92BF926E
:1007E000CF92DF92EF92FF920F931F93CF93DF93FD
:1007F000EC017B016A01590198010E944D03B5018A
:100800006E0D7F1DCE01A60198010E944D03CE0101
:10081000B701A50198010E949D03C6018C0F9D1F81
:10082000B701A50198010E949D03DF91CF911F910F
:100830000F91FF90EF90DF90CF90BF90AF90089511
:100840008F929F92AF92BF92CF92DF92EF92FF92E0
:100850000F931F93CF93DF936C017B015A014901E2
:10086000C0E0D0E009C0BE016E0D7F1DC601A5012C
:1008700098010E944D032196C815D905A0F3DF9178
:10088000CF911F910F91FF90EF90DF90CF90BF908D
:10089000AF909F908F9008952F923F924F925F92CA
:1008A0006F927F928F929F92AF92BF92CF92DF9280
:1008B000EF92FF920F931F93CF93DF934C013B0175
:1008C0005901EE24FF24E41AF50A8701000F111FD5
:1008D0000E5F1F4FCC24DD2414012E183F08E601C3
:1008E000C60DD71DC101BE01A5010E94AD022701A1
:1008F000480C591CC201BE01A5010E94AD02E301D2
:10090000CC19DD09C201BE01A5010E94AD02C101E1
:10091000BE01A5010E94AD02C016D106BCF008942C
:10092000C11CD11CC80101969601220F331F820FF2
:10093000931F222733272E193F092C153D0539F423
:10094000E016F1063CF000E010E001C0C801E0163E
:10095000F1065CF40894E11CF11C8701000F111FE3
:100960000F5F1F4F080F191F01C08C011E141F04B9
:100970000CF0B2CFDF91CF911F910F91FF90EF90CC
:10098000DF90CF90BF90AF909F908F907F906F90AF
:100990005F904F903F902F9008954F925F926F928B
:1009A0007F928F929F92AF92BF92CF92DF92EF92FF
:1009B000FF920F931F93CF93DF935C012B013901BB
:1009C000EE24FF24E41AF50A8701000F111F0E5FC1
:1009D0001F4FCC24DD2442018C189D08E601CC0F6A
:1009E000DD1FC5018E199F09B401AE0193010E945C
:1009F0009D03C7018A0D9B1DB401AE0193010E94A6
:100A00009D03C016D106BCF00894C11CD11CC801BE
:100A100001969601220F331F820F931F222733273F
:100A20002E193F092C153D0539F4E016F1063CF06E
:100A300000E010E001C0C801E016F1065CF4089483
:100A4000E11CF11C8701000F111F0F5F1F4F080FE2
:100A5000191F01C08C011E141F040CF0BCCFDF91C4
:100A6000CF911F910F91FF90EF90DF90CF90BF90AB
:100A7000AF909F908F907F906F905F904F90089570
:100A80002F923F924F925F926F927F928F929F929E
:100A9000AF92BF92CF92DF92EF92FF920F931F938C
:100AA000DF93CF9300D000D0CDB7DEB74B014983A1
:100AB0005A8369012801982F9052903608F08FE1EF
:100AC000282F30E013E0220F331F1A95E1F72A5741
:100AD00030403C832B8366247724EB81FC81249077
:100AE00099818A81A92EB82EEE24FF243324C101D6
:100AF0000E2C02C0959587950A94E2F780FF07C0F7
:100B0000C401B501A601960182010E942004089447
:100B1000E11CF11CAC0CBD1CF8E0EF16F10439F738
:100B20000894611C711C2B813C812F5F3F4F3C83DB
:100B30002B838C0C9D1C38E06316710471F60F90AA
:100B40000F900F900F90CF91DF911F910F91FF9019
:100B5000EF90DF90CF90BF90AF909F908F907F905D
:100B60006F905F904F903F902F9008956F927F927B
:100B70008F929F92AF92BF92CF92DF92EF92FF92AD
:100B80000F931F93CF93DF937B013A0169014801D3
:100B9000E901CC0FDD1FCC0DDD1DCC0FDD1FA82E14
:100BA000B92E0CC0B701A301960184010E94400533
:100BB0008FEEE816F10410F4EC0EFD1EF5018191A4
:100BC0005F01882379F7DF91CF911F910F91FF90FB
:100BD000EF90DF90CF90BF90AF909F908F907F90DD
:100BE0006F9008954F925F926F927F928F929F9233
:100BF000AF92BF92CF92DF92EF92FF920F931F932B
:100C0000DF93CF93CDB7DEB72A970FB6F894DEBF48
:100C10000FBECDBF5B012A013901480119821A823A
:100C20001B821C82FE01359626E0DF011D922A956B
:100C3000E9F7009731F480E393010E94400581E0D9
:100C400030C0FF246E010894C11CD11C2AE030E0A2
:100C5000F601EF0DF11DB9010E94A7158083F394F1
:100C6000CB010097A9F7EF2C6301CC0CDD1CC60C5F
:100C7000D71CCC0CDD1C12C0FE01EF0DF11D8081D4
:100C8000805DB501A201930184010E944005BFEE81
:100C9000AB16B10410F4AC0CBD1CFA94FF2061F744
:100CA0008E2D2A960FB6F894DEBF0FBECDBFCF9122
:100CB000DF911F910F91FF90EF90DF90CF90BF9049
:100CC000AF909F908F907F906F905F904F9008951E
:100CD0002F923F924F925F926F927F928F929F924C
:100CE000AF92BF92CF92DF92EF92FF920F931F933A
:100CF000CF93DF934B015C01EA013901680120E0E9
:100D000030E0A9010E94641287FF18C08DE2BE0185
:100D1000A301980187010E944005B7FAB094B7F883
:100D2000B094CF3ED10560F4C601880F991F8C0D99
:100D30009D1D880F991FC80FD91F02C0552402C0DE
:100D400055245394C501B4012DEC3CEC4CE45DE317
:100D50000E942E10862EB72EA82E992E0E94B80E15
:100D6000DC01CB011C01BE01A301960187010E9499
:100D7000F205482E90E08C9D90018D9D300D9C9D3C
:100D8000300D1124C901F3E0880F991FFA95E1F79E
:100D90008C0F9D1F8F3E910548F4C901880F991F44
:100DA000820F931F880F991FC80FD91F8EE2BE01B3
:100DB000A301960187010E944005CF3ED10548F46A
:100DC000C601880F991F8C0D9D1D880F991FC80F94
:100DD000D91FB10180E090E00E9446139B01AC0155
:100DE000682D7B2D8A2D992D0E945B1020E030E02C
:100DF00040E251E40E948C100E94B80EDC01CB014D
:100E0000BE01A301960187010E94F205852D840D84
:100E10008E5FDF91CF911F910F91FF90EF90DF9048
:100E2000CF90BF90AF909F908F907F906F905F908A
:100E30004F903F902F9008952F923F924F925F9244
:100E40006F927F928F929F92AF92BF92CF92DF92DA
:100E5000EF92FF920F931F93DF93CF93CDB7DEB73F
:100E60002A970FB6F894DEBF0FBECDBF5C016D832D
:100E70007E835A8349831C830B837901EE0CFF1C0C
:100E8000E20EF31EEE0CFF1C222433246701A9019D
:100E900042C0F40124919D818E81C92ED82EEE246A
:100EA000FF24822F90E098878F835A8749878F810C
:100EB00098850E2C02C0959587950A94E2F780FFDD
:100EC00009C0C201B60149855A859A010B811C816E
:100ED0000E9420040894E11CF11CE985FA85CE0EDD
:100EE000DF1EF8E0EF16F10411F749855A850894E2
:100EF000811C911C440E551E8EE8881683E09806CE
:100F000041F663019FEEA916B10410F4A60CB71CBC
:100F10000894211C311CE981FA812E163F0638F411
:100F200016E8812E13E0912E25013601B2CF2A96C4
:100F30000FB6F894DEBF0FBECDBFCF91DF911F91EA
:100F40000F91FF90EF90DF90CF90BF90AF909F9068
:100F50008F907F906F905F904F903F902F9008956B
:100F60000F931F939A01FA01EE0FFF1F43E0220F28
:100F7000331F4A95E1F7E20FF31FAF019F0100EE27
:100F80001FEF0E9420041F910F9108950F931F934C
:100F9000FB01BC016E1B7F0B40911C0250911D0296
:100FA0009F01220F331FA3E0EE0FFF1FAA95E1F769
:100FB0002E0F3F1F00911A0210911B0280E090E05B
:100FC0000E9420041F910F9108958F929F92AF92DB
:100FD000BF92CF92DF92EF92FF920F931F93CF9326
:100FE000DF936C015B014A01E801601B710BC901D1
:100FF000880F991F820F931F880F991F809FA00150
:10100000819F500D909F500D1124400F511F98014A
:10101000220F331FCE0113E0880F991F1A95E1F7B5
:10102000280F391F21503040C60100E018EF0E9400
:10103000EE03C601B501A4019E0187010E941C07B1
:10104000DF91CF911F910F91FF90EF90DF90CF90A4
:10105000BF90AF909F908F9008952F923F924F92A4
:101060005F926F927F928F929F92AF92BF92CF9238
:10107000DF92EF92FF920F931F93DF93CF9300D0F5
:1010800000D000D0CDB7DEB7782E692E2B011A0123
:1010900009831A832B833C83FE82ED82460165011E
:1010A000970184010E94B605E72DF62DDF010D9012
:1010B0000020E9F71197AE1BBF0B8D819E81880F31
:1010C000991F2D813E81820F931F880F991F8A9F40
:1010D00050018B9FB00C9A9FB00C11243501640C09
:1010E000751C69817A818B819C810E94B80E9B015D
:1010F000AC01C301B101A9012AE030E00D811E81DC
:1011000074010E94E5074D815E8166E0440F551F22
:101110006A95E1F7440D551D4A0D5B1D69817A8181
:101120008B819C8191010D811E810E94680626960B
:101130000FB6F894DEBF0FBECDBFCF91DF911F91E8
:101140000F91FF90EF90DF90CF90BF90AF909F9066
:101150008F907F906F905F904F903F902F90089569
:101160000F931F938C0140911C0250911D022091FE
:101170001F023091200280E090E060E070E00E9469
:1011800020041F910F9108950E94E6010E94000221
:101190000E9406020E9412028FE19EE40197F1F77D
:1011A00000C000000E940F0280E00E947C028BECD5
:1011B0000E94150289E30E9428028CE20E94280204
:1011C00080E00E94280284E30E94280282E00E94BC
:1011D00028028FEC0E94150280E00E94280281EC18
:1011E0000E94280280E30E94280288EE0E941502D5
:1011F00085E80E94280280E00E94280288E70E9479
:1012000028028AEE0E94150280E00E94280280E0F7
:101210000E9428028DEE0E94150284E60E94280298
:1012200083E00E94280282E10E94280281E80E9455
:10123000280287EF0E94150280E20E94280280ECBB
:101240000E94150283E20E94280281EC0E9415028E
:1012500080E10E94280285EC0E9415028EE30E9424
:10126000280288E20E94280287EC0E94150286E884
:101270000E94280286E30E94150288E40E94280248
:101280008AE30E94150285E50E94280281EB0E94F4
:10129000150280E00E94280288E10E94280286EB65
:1012A0000E94150288E00E94280282E80E9428021B
:1012B00087E20E94280282EF0E94150280E00E94CD
:1012C000280286E20E94150281E00E94280280EE38
:1012D0000E9415028FE00E94280281E30E942802EA
:1012E0008BE20E9428028CE00E9428028EE00E947D
:1012F000280288E00E9428028EE40E94280281EFE2
:101300000E94280287E30E94280287E00E942802A8
:1013100080E10E94280283E00E9428028EE00E9461
:10132000280289E00E94280280E00E94280281EEC3
:101330000E94150280E00E9428028EE00E9428028E
:1013400084E10E94280283E00E94280281E10E9439
:10135000280287E00E94280281E30E94280281EC93
:101360000E94280288E40E94280288E00E94280245
:101370008FE00E9428028CE00E94280281E30E94F4
:10138000280286E30E9428028FE00E94280281E161
:101390000E9415028FEF9DEEA2E081509040A04088
:1013A000E1F700C0000089E20E9415028CE20E9471
:1013B000150280911A0290911B020E94B0080895B4
:1013C0002F923F924F925F926F927F928F929F9255
:1013D000AF92BF92CF92DF92EF92FF920F931F9343
:1013E000DF93CF93CDB7DEB7A6970FB6F894DEBFE5
:1013F0000FBECDBF3C015B011A0149012801FA8AE9
:10140000E98ADE8ACD8AC70162E070E00E94BB15DE
:101410008B01109501951F4F26EA3FEF820E931E18
:10142000420E531E7801E20CF31C8414950409F457
:1014300008C1FE82ED821A821982C301AA2797FD94
:10144000A095BA2F8F8B988FA98FBA8FC401AA2726
:1014500097FDA095BA2F8B8F9C8FAD8FBE8FC50146
:10146000AA2797FDA095BA2F8F8F98A3A9A3BAA3F7
:10147000D4011196BCA3ABA3DBC06F89788D898D95
:101480009A8D0E94941269877A878B879C876B8DCF
:101490007C8D8D8D9E8D0E94941223EC35EF48E457
:1014A00050E40E948C1020E030E044E353E40E94BA
:1014B0008611762E672E982E892EA3019401652F12
:1014C000742F832F922F0E9405167B018C01ED81D2
:1014D000FE81BF01882777FD8095982F0E94941286
:1014E0005B016C01C801B701A60195010E948C1037
:1014F0009B01AC0169857A858B859C850E942E10A5
:101500000E94F412362E272E6F8D78A189A19AA100
:101510000E9494126D877E878F87988BA301940118
:10152000652F742F832F922F0E946316A6019501B9
:101530000E948C109B01AC016D857E858F859889FA
:101540000E942E100E94F412762E672E8BA19CA171
:101550009EA38DA35CC02DA13EA1B901882777FD74
:101560008095982F0E94941223EC35EF48E450E4C4
:101570000E948C1020E030E044E353E40E94861186
:10158000162F072FF82EE92EA8019701652F742F2B
:10159000832F922F0E940516A60195010E948C10A0
:1015A0009B01AC0169857A858B859C850E942E10F4
:1015B0000E94F412962E872EA8019701652F742F92
:1015C000832F922F0E946316A60195010E948C1012
:1015D0009B01AC016D857E858F8598890E942E10B8
:1015E0000E94F412F62EE72E832D922D672D762D74
:1015F000492D582D2F2D3E2D0D891E890E94C60282
:101600008DA19EA101969EA38DA314013701ADA1CA
:10161000BEA14A165B060CF09ECFE981FA81319695
:10162000FA83E9832D813E812F5F3F4F3E832D83D7
:1016300089819A81A989BA898A179B070CF41DCFE1
:10164000AEC0B301882777FD8095982F0E94941231
:1016500069837A838B839C83B401882777FD809587
:10166000982F0E94941223EC35EF48E450E40E9436
:101670008C1020E030E044E353E40E9486114B01DB
:101680006C01762F272F392D4C2D5D2DCA01B90104
:101690000E9405166D837E838F839887B701882704
:1016A00077FD8095982F0E9494122B013C01B50183
:1016B000882777FD8095982F0E94941269877A87F2
:1016C0008B879C87682D792D8C2D9D2D0E9463160C
:1016D0005B016C01201A310AB101882777FD8095E2
:1016E000982F0E9494127B018C016D817E818F81E5
:1016F0009885A30192010E948C109B01AC01698125
:101700007A818B819C810E942E100E94F4126D8739
:101710007E878F87988BC601B501A30192010E9435
:101720008C109B01AC0169857A858B859C850E9414
:101730002E100E94F412698B7A8B8B8B9C8B6D819F
:101740007E818F819885A80197010E948C109B0152
:10175000AC0169817A818B819C810E942E100E944C
:10176000F4122B013C01C601B501A80197010E94AA
:101770008C109B01AC0169857A858B859C850E94C4
:101780002E100E94F4128B019C018D859E85698923
:101790007A89A20198010D891E890E94C602A69627
:1017A0000FB6F894DEBF0FBECDBFCF91DF911F9172
:1017B0000F91FF90EF90DF90CF90BF90AF909F90F0
:1017C0008F907F906F905F904F903F902F900895F3
:1017D0006F927F928F929F92AF92BF92CF92DF9241
:1017E000EF92FF920F931F93CF93DF93B82EA92E02
:1017F0006B013A01890180901C0290901D02E82F34
:10180000F92FEF0109900020E9F72197CE1BDF0B9C
:101810007B01EE0CFF1CE60EF71E9701220F331F13
:10182000220F331F80E090E060E070E0A4010E948E
:101830002004840116950795EE0CFF1CEC9EC00158
:10184000ED9E900DFC9E900D112496958795081B9A
:10185000190BB60180E090E00E94461320E030E0D2
:1018600040E05FE30E948C1020E030E040EC50E468
:101870000E948C100E94B80E9B01AC018B2D9A2DFA
:10188000B801A901960183010E94B605DF91CF91AD
:101890001F910F91FF90EF90DF90CF90BF90AF908E
:1018A0009F908F907F906F900895AF92BF92CF924C
:1018B000DF92EF92FF920F931F9380E091E064EB31
:1018C00070E040E050E022E030E000EE17E00E94DF
:1018D000B60584E190E06AE070E044E650E024E17F
:1018E00030E000E018EF0E94200484E190E06CE317
:1018F00070E044E150E02FE130E00E94CD0481E649
:1019000060E070E040E550E022E030E00E944005F9
:101910008AE090E06AE070E040EE57E00E94AD029D
:1019200084EB90E068E270E043E050E022E030E0D9
:1019300000EE1FEF0E941C078AE090E060EA70E072
:1019400042E050E023E030E008E010E0EFE1EE2E6E
:10195000F12CC12CB8EFDB2E0E94E50768EB7EE18D
:1019600087EF92EC48E750E02CE330E002E010E033
:101970000E94680688EC91E068EC70E04CE350E06F
:1019800022E030E00FEF1FEF0E94F20540911C02B1
:1019900050911D0220911F023091200280E090E0C2
:1019A00060E070E000EE17E00E94C60220911F0286
:1019B0003091200280911C0290911D0260E070E045
:1019C00040E050E00E94C60285E091E064E170E0F2
:1019D00044E650E000E010E020EF30E4A2E0EA2E20
:1019E000F12CFFE1CF2ED12CA12CE8EFBE2E0E94CE
:1019F0002D0880E090E060E070E040EF50E020EFE4
:101A000030E000EE17E00E94EE031F910F91FF906F
:101A1000EF90DF90CF90BF90AF900895CF92DF927C
:101A2000EF92FF920F931F938BE091E062E070E0E2
:101A30004FEF5FEF21E238E00E94E80B80911C023B
:101A400090911D0260911F0270912002769567951A
:101A50009695879540E058EF0E94AD0280911C0258
:101A600090911D0260911F027091200276956795FA
:101A70009695879542E350E020E030E00AE510E0DB
:101A8000E8E0EE2EF12CB0EECB2EBFEFDB2E0E9465
:101A9000E00980911C0290911D0260911F027091DB
:101AA0002002769567959695879542E350E02AE562
:101AB00030E004EB10E0EFE1CE2EE8EFDE2E0E94E6
:101AC000E00980911C0290911D0260911F027091AB
:101AD0002002769567959695879542E350E024EB32
:101AE00030E00EE011E0B0EECB2EBFEFDB2E0E9417
:101AF000E00980911C0290911D0260911F0270917B
:101B00002002769567959695879542E350E02EE002
:101B100031E008E611E0EFE1CE2EE8EFDE2E0E9484
:101B2000E00980911C0290911D0260911F0270914A
:101B3000200276956795969587954EE250E020E0D5
:101B400030E0B2E0EB2EF12CAFE1CA2ED12C0E9496
:101B5000E00980911C0290911D0260911F0270911A
:101B60002002769567959695879547E350E020E0AB
:101B700030E00E94E00980911C0290911D0260916A
:101B80001F027091200276956795969587954EE293
:101B900050E020E030E0CC24DD240E94E009809178
:101BA0001C0290911D0260911F0270912002769597
:101BB00067959695879547E350E020E030E00E94D6
:101BC000E00980911C0290911D0260911F027091AA
:101BD0002002769567959695879542E350E020E040
:101BE00030E00AE510E0F8E0EF2EF12CC12CE8EF30
:101BF000DE2E0E94E00980911C0290911D026091EE
:101C00001F0270912002769567959695879542E31D
:101C100050E02AE530E004EB10E0BFE1CB2ED12C00
:101C20000E94E00980911C0290911D0260911F02A8
:101C300070912002769567959695879542E350E0DE
:101C400024EB30E00EE011E0C12CE8EFDE2E0E9424
:101C5000E00980911C0290911D0260911F02709119
:101C60002002769567959695879542E350E02EE0A1
:101C700031E008E611E0BFE1CB2ED12C0E94E00953
:101C800080911C0290911D0260911F0270912002B0
:101C900076956795969587954EE250E020E030E086
:101CA000E2E0EE2EF12CB0EECB2EB7E0DB2E0E9460
:101CB000E00980911C0290911D0260911F027091B9
:101CC0002002769567959695879547E350E020E04A
:101CD00030E00E94E0091F910F91FF90EF90DF909C
:101CE000CF90089581E00E947C020E94550C8FEFF6
:101CF00093EDA0E381509040A040E1F700C00000C8
:101D000080911A0290911B020E94B00880E00E940C
:101D10007C020E94550C8FEF93EDA0E38150904020
:101D2000A040E1F700C0000080911A0290911B02D0
:101D30000E94B00881E00E947C020E940E0D8091FA
:101D40001A0290911B020E94B00880E00E947C025F
:101D50000E940E0D80911A0290911B020E94B00801
:101D600008950E94C4080E940C020E94720EFDCFCA
:101D7000EF92FF920F931F937B018C0120E030E0E4
:101D800040E05FE40E94341287FD11C0C801B70132
:101D900020E030E040E05FE40E945B100E94F4121B
:101DA0009B01AC01205030404040504806C0C80163
:101DB000B7010E94F4129B01AC01B901CA011F9145
:101DC0000F91FF90EF900895A0E0B0E0EAEEFEE002
:101DD0000C94D215FC01EA018081823008F438C1EC
:101DE000DB019C91923008F430C1843059F4943076
:101DF00009F02EC1918111968C911197981709F0D5
:101E000021C126C1943009F420C19230B1F482304E
:101E100009F01EC1CA01AF0128E0DA010D90AD0141
:101E2000DC010D92CD012150C1F7DB0111968C919F
:101E300011979181892389830AC1823009F405C1F0
:101E4000C280D380DB0112966D907C901397248121
:101E50003581468157811496ED90FD900D911C912E
:101E60001797C601861997095C0197FF04C0AA2439
:101E7000BB24A81AB90AB0E2AB16B1040CF061C0D9
:101E8000181619066CF5370148010A2C04C09694FF
:101E90008794779467940A94D2F781E090E0A0E069
:101EA000B0E00A2C04C0880F991FAA1FBB1F0A9418
:101EB000D2F70197A109B1098E219F21A023B12357
:101EC000EE24FF248701E3940097A105B10519F4DE
:101ED000EE24FF248701E628F728082919293CC0A9
:101EE0000097D1F1CA0CDB1C39014A010A2C04C04D
:101EF00096948794779467940A94D2F781E090E05F
:101F0000A0E0B0E00A2C04C0880F991FAA1FBB1FD5
:101F10000A94D2F70197A109B10982239323A4233C
:101F2000B52321E030E040E050E00097A105B10585
:101F300019F420E030E0A901262937294829592938
:101F40000BC06C147D0424F4EE24FF24870104C02C
:101F5000630120E030E0A9018181FB0191818917B3
:101F600009F445C0882349F0D801C701821B930BAF
:101F7000A40BB50B9C01AD0104C02E193F09400B09
:101F8000510B57FD04C01982DB82CA820BC081E06D
:101F90008983DB82CA8250954095309521953F4FC9
:101FA0004F4F5F4F2C833D834E835F830DC0880F5F
:101FB000991FAA1FBB1F8C839D83AE83BF838A8119
:101FC0009B8101979B838A838C819D81AE81BF8198
:101FD0009C01AD0121503040404050402F3FEFEF79
:101FE0003E07EFEF4E07EFE35E0708F30BC0898370
:101FF000DB82CA822E0D3F1D401F511F2C833D8363
:102000004E835F8383E088832C813D814E815F8195
:1020100057FF1DC0DA01C90181709070A070B070C7
:102020005695479537952795822B932BA42BB52B47
:102030008C839D83AE83BF838A819B8101969B8322
:102040008A8305C0E2E1F1E003C0FB0101C0FE01AB
:10205000CF01CDB7DEB7EEE00C94EE15A0E2B0E014
:10206000E4E3F0E10C94DA1569837A838B839C8333
:102070002D833E834F83588789E0E82EF12CEC0EA8
:10208000FD1ECE010196B7010E94E5148E010F5E80
:102090001F4FCE010596B8010E94E514C701B80193
:1020A000AE01475E5F4F0E94E40E0E941814A09696
:1020B000E6E00C94F615A0E2B0E0E1E6F0E10C9465
:1020C000DA1569837A838B839C832D833E834F83C8
:1020D00058878E01075F1F4FCE010196B8010E94FD
:1020E000E51491E1E92EF12CEC0EFD1ECE010596D2
:1020F000B7010E94E5148A8991E089278A8BC8017B
:10210000B701AE01475E5F4F0E94E40E0E941814B3
:10211000A096E6E00C94F615A0E2B0E0E2E9F0E16A
:102120000C94CE1569837A838B839C832D833E83A5
:102130004F835887CE010196BE01675F7F4F0E9493
:10214000E514CE010596BE016F5E7F4F0E94E51437
:102150009985923078F089898230C0F0943019F4F2
:10216000823041F4CBC0843019F4923079F4C6C087
:10217000923051F481E02A859A89291709F480E088
:102180008A87CE010996BCC0823051F481E02A854D
:102190009A89291709F480E08A8BCE014196B0C054
:1021A0006D847E848F849888ED88FE880F89188DD1
:1021B000E0E2F0E080E090E0DC01AA24BB246501CD
:1021C00020E030E0A901B301617070706115710504
:1021D000D1F02E0D3F1D401F511F15012601280E65
:1021E000391E4A1E5B1E81E090E0A0E0B0E02E1593
:1021F0003F054007510718F080E090E0DC01820DB8
:10220000931DA41DB51DAA0CBB1CCC1CDD1C17FF07
:1022100009C061E0262E312C412C512CA228B32874
:10222000C428D528319749F0EE0CFF1C001F111F60
:102230009694879477946794C6CF6B897C89EB8555
:10224000FC856E0F7F1F6E5F7F4F7C8F6B8F61E011
:10225000EA857A89E71709F460E06A8F6B8D7C8DD7
:1022600010C0FC01E170F070309729F05695479549
:10227000379527955068B695A795979587956F5F81
:102280007F4FB7FDEECF0CC0880F991FAA1FBB1F51
:1022900057FD8160220F331F441F551F615070404E
:1022A0008030E0E09E07E0E0AE07E0E4BE0760F3C8
:1022B0006B8F7C8F6FE7E62EF12C012D112DE8221C
:1022C000F9220A231B2360E4E616F1040105110537
:1022D00061F487FD0AC0211531054105510529F03A
:1022E000805C9F4FAF4FBF4F80788D8F9E8FAF8F99
:1022F000B8A383E0898FCE01499602C082E191E0C4
:102300000E941814A096E2E10C94EA15A8E1B0E04E
:10231000ECE8F1E10C94D61569837A838B839C8376
:102320002D833E834F8358878E01075F1F4FCE0159
:102330000196B8010E94E51481E1E82EF12CEC0E23
:10234000FD1ECE010596B7010E94E51499859230D5
:1023500008F483C08989823008F47BC02A853A89D1
:1023600023272A87943011F0923021F4981709F02E
:102370006CC071C0843039F41D861E861F86188A91
:102380001C861B866AC0823019F484E0898765C088
:102390008B859C852B893C89821B930B9C878B8723
:1023A0002D853E854F855889ED88FE880F89188DCB
:1023B0002E153F054007510738F4220F331F441FE5
:1023C000551F01979C878B876FE170E0A12CB12C82
:1023D000C12CA0E4DA2E80E090E0DC012E153F0550
:1023E0004007510740F08A299B29AC29BD292E19A5
:1023F0003F09400B510BD694C794B794A794220F72
:10240000331F441F551F6150704041F76FE7E62EA0
:10241000F12C012D112DE822F9220A231B2360E45F
:10242000E616F1040105110561F487FD0AC02115C6
:1024300031054105510529F0805C9F4FAF4FBF4FDB
:1024400080788D879E87AF87B88B8E01075F1F4F7F
:1024500004C0870102C002E111E0C8010E94181403
:102460006896EAE00C94F215A8E1B0E0EAE3F2E144
:102470000C94DA1569837A838B839C832D833E8346
:102480004F8358878E01075F1F4FCE010196B80119
:102490000E94E51481E1E82EF12CEC0EFD1ECE0128
:1024A0000596B7010E94E5148985823040F089893C
:1024B000823028F0C801B7010E944E1501C08FEF8D
:1024C0006896E6E00C94F615A8E1B0E0EAE6F2E1E1
:1024D0000C94DA1569837A838B839C832D833E83E6
:1024E0004F8358878E01075F1F4FCE010196B801B9
:1024F0000E94E51481E1E82EF12CEC0EFD1ECE01C8
:102500000596B7010E94E5148985823040F08989DB
:10251000823028F0C801B7010E944E1501C081E049
:102520006896E6E00C94F615A8E0B0E0EAE9F2E17E
:102530000C94DA157B018C0183E08983D801C701F3
:102540008827B7FD83959927AA27BB27282F8A8339
:10255000E114F1040105110519F482E0898337C003
:102560008EE190E09C838B83222389F080E0E81643
:1025700080E0F80680E0080780E8180769F1109508
:102580000095F094E094E11CF11C011D111DED82F9
:10259000FE820F831887C801B7010E94BE139C01F9
:1025A000215030401216130694F4022E04C0EE0C93
:1025B000FF1C001F111F0A94D2F7ED82FE820F83C9
:1025C00018878EE190E0821B930B9C838B83CE0156
:1025D00001960E94181404C060E070E080E09FEC57
:1025E0002896E6E00C94F615ACE0B0E0EAEFF2E1F4
:1025F0000C94DE1569837A838B839C83CE010196CC
:10260000BE016B5F7F4F0E94E5148D81823081F1A6
:10261000823070F1843021F48E81882369F10AC000
:102620002F81388537FD24C06E812F3131053CF074
:10263000662311F120E030E040E050E821C08EE157
:1026400090E0821B930B29853A854B855C8504C0FD
:1026500056954795379527958A95D2F7662381F049
:1026600050954095309521953F4F4F4F5F4F08C093
:1026700020E030E0A90104C02FEF3FEF4FEF5FE70C
:10268000B901CA012C96E2E00C94FA15A8E0B0E07A
:10269000ECE4F3E10C94D8157B018C011A826115EE
:1026A00071058105910519F482E089835FC083E09B
:1026B00089838EE1C82ED12CDC82CB82ED82FE8212
:1026C0000F831887C801B7010E94BE13FC01319720
:1026D000F7FF3AC0AA27BB27AE1BBF0B21E030E0B3
:1026E00040E050E00A2E04C0220F331F441F551F44
:1026F0000A94D2F721503040404050402E213F21D3
:102700004023512361E070E080E090E02115310525
:102710004105510519F460E070E0CB0104C0169545
:102720000795F794E794AA95D2F7E62AF72A082B9B
:10273000192BED82FE820F8318878EE190E08E1BAD
:102740009F0B9C838B8312C0309781F00E2E04C0A8
:10275000EE0CFF1C001F111F0A94D2F7ED82FE82BF
:102760000F831887CE1ADF0ADC82CB82CE01019656
:102770000E9418142896E8E00C94F415AF92BF92CA
:10278000CF92DF92EF92FF920F931F937B018C0108
:1027900080E0E81680E0F80681E0080780E018078E
:1027A00058F4EFEFEE16F1040105110509F090F46D
:1027B00080E090E0DC0117C0F0E0EF16F0E0FF06EB
:1027C000F0E00F07F1E01F0750F480E190E0A0E097
:1027D000B0E009C088E090E0A0E0B0E004C088E18B
:1027E00090E0A0E0B0E020E230E040E050E0281BC4
:1027F000390B4A0B5B0B5701680104C0D694C79490
:10280000B794A7948A95D2F7D601C501865E9E4FEC
:10281000FC018081281B310941095109C9011F911F
:102820000F91FF90EF90DF90CF90BF90AF90089501
:10283000EF92FF920F931F93CF93DF93FC012481BC
:1028400035814681578161818081823020F44061E9
:10285000EFEFF0E0A3C0843009F49BC0823009F4AC
:1028600092C0211531054105510509F48FC0028040
:10287000F381E02D7FEFE238F7070CF05AC0C2E891
:10288000DFEFCE1BDF0BCA31D1056CF579018A0170
:102890000C2E04C016950795F794E7940A94D2F786
:1028A00081E090E0A0E0B0E00C2E04C0880F991FFA
:1028B000AA1FBB1F0A94D2F70197A109B10982236D
:1028C0009323A423B52321E030E040E050E00097BB
:1028D000A105B10519F420E030E0A9012E293F2916
:1028E000402B512B03C020E030E0A901DA01C901DF
:1028F0008F779070A070B07080349105A105B105FC
:1029000039F427FF09C0205C3F4F4F4F5F4F04C091
:10291000215C3F4F4F4F5F4FE1E0F0E0203080E01F
:10292000380780E0480780E4580728F5E0E0F0E049
:1029300022C0E038F1056CF5E158FF4FDA01C9011A
:102940008F779070A070B07080349105A105B105AB
:1029500039F427FF09C0205C3F4F4F4F5F4F04C041
:10296000215C3F4F4F4F5F4F57FF05C0569547952E
:1029700037952795319687E0569547953795279552
:102980008A95D1F70BC0E0E0F0E005C0E0E0F0E0B0
:1029900005C0EFEFF0E020E030E0A9018E2F879531
:1029A00088278795942F9F77679566276795E69583
:1029B000A92FA82BFE2FF62B622F732F8A2F9F2F64
:1029C000CDB7DEB7E6E00C94F615DC01FB012C91E7
:1029D00011963C91119712968C911297482F4F7730
:1029E00050E0982F991F9927991F13966C91139770
:1029F000862F880F892B90E0661F6627661F6183EC
:102A0000009739F5211531054105510511F482E092
:102A100029C082E89FEF9383828367E0220F331FF0
:102A2000441F551F6A95D1F783E0808309C0220FA8
:102A3000331F441F551F82819381019793838283A3
:102A4000203080E0380780E0480780E4580778F3BA
:102A500020C08F3F910579F42115310541055105BD
:102A600019F484E08083089544FF03C081E08083EB
:102A700010C010820EC08F5790409383828383E0F2
:102A8000808387E0220F331F441F551F8A95D1F79B
:102A9000506424833583468357830895FC01DB010A
:102AA0009081923008F449C08C91823008F445C07E
:102AB000943051F461818430B1F511962C911197C5
:102AC00030E0261B310941C0843021F0923041F4BE
:102AD0008230B1F111968C9111978823A1F12DC00C
:102AE0006181823001F111968C9111976817D9F4A8
:102AF0002281338112968D919C91139782179307AF
:102B000094F028173907BCF024813581468157811C
:102B100014968D919D910D90BC91A02D82179307D5
:102B2000A407B50718F4662341F00DC0281739072C
:102B30004A075B0728F4662331F021E030E005C046
:102B400020E030E002C02FEF3FEFC9010895AA1B3B
:102B5000BB1B51E107C0AA1FBB1FA617B70710F088
:102B6000A61BB70B881F991F5A95A9F780959095BA
:102B7000BC01CD01089597FB092E07260AD077FDE9
:102B800004D0E5DF06D000201AF4709561957F4FE0
:102B90000895F6F7909581959F4F08952F923F9253
:102BA0004F925F926F927F928F929F92AF92BF925D
:102BB000CF92DF92EF92FF920F931F93CF93DF9309
:102BC000CDB7DEB7CA1BDB0B0FB6F894DEBF0FBE66
:102BD000CDBF09942A88398848885F846E847D84B3
:102BE0008C849B84AA84B984C884DF80EE80FD80B5
:102BF0000C811B81AA81B981CE0FD11D0FB6F8942B
:102C0000DEBF0FBECDBFED01089503D0E39528C010
:102C1000D4C03FD0E8F3E894E0E0BB279F57F0F042
:102C20002AED3FE049EC06C0EE0FBB0F661F771F91
:102C3000881F28F0B23A62077307840728F0B25A57
:102C4000620B730B840BE3959A9572F7803830F41E
:102C50009A95BB0F661F771F881FD2F79048A1C0B7
:102C6000EF93E0FF06C0A2EA2AED3FE049EC5FEBFC
:102C70003DD0C5D00F90039401FC9058E8E6F0E0F9
:102C80009FC057FD9058440F551F59F05F3F71F09A
:102C90004795880F97FB991F61F09F3F79F08795C3
:102CA0000895121613061406551FF2CF4695F1DF4C
:102CB00008C0161617061806991FF1CF86957105DC
:102CC0006105089408959F93A4DF0F9007FCEE5FC1
:102CD000C7CF87D030F08CD020F031F49F3F11F473
:102CE0001EF46BC00EF4E095E7FB53C0E92FC9DF7B
:102CF00080F3BA17620773078407950718F071F419
:102D00009EF58EC00EF4E0950B2EBA2FA02D0B0170
:102D1000B90190010C01CA01A0011124FF27591B20
:102D200099F0593F50F4503E68F11A16F040A22F26
:102D3000232F342F4427585FF3CF46953795279597
:102D4000A795F0405395C9F77EF41F16BA0B620B96
:102D5000730B840BBAF09150A1F0FF0FBB1F661FDD
:102D6000771F881FC2F70EC0BA0F621F731F841F20
:102D700048F4879577956795B795F7959E3F08F046
:102D8000B3CF9395880F08F09927EE0F9795879505
:102D9000089597F99F6780E870E060E008959F3F8D
:102DA00031F0915020F4879577956795B795880F06
:102DB000911D9695879597F908959FEF80EC08955A
:102DC0009F938F937F936F93FF93EF939B01AC013E
:102DD000A3D9EF91FF912BD02F913F914F915F910C
:102DE0009BC900240A9416161706180609060895AA
:102DF00000240A9412161306140605060895092ED7
:102E00000394000C11F4882352F0BB0F40F4BF2B45
:102E100011F460FF04C06F5F7F4F8F4F9F4F089585
:102E2000E894BB2766277727CB0197F90895DF93AE
:102E3000CF931F930F93FF92EF92DF927B018C0150
:102E4000689405C0DA2EEF0121D0FE01E894A59127
:102E50002591359145915591AEF3EF0147DFFE0184
:102E60009701A801DA9479F7DF90EF90FF900F9126
:102E70001F91CF91DF910895B4DF28F0B9DF18F0EA
:102E8000952309F086CF99CF1124CBCFFADEA0F39A
:102E9000959FD1F3950F50E0551F629FF001729FEF
:102EA000BB27F00DB11D639FAA27F00DB11DAA1F0E
:102EB000649F6627B00DA11D661F829F2227B00D5B
:102EC000A11D621F739FB00DA11D621F839FA00DE6
:102ED000611D221F749F3327A00D611D231F849F36
:102EE000600D211D822F762F6A2F11249F5750408D
:102EF0008AF0E1F088234AF0EE0FFF1FBB1F661F28
:102F0000771F881F91505040A9F79E3F510570F0E0
:102F100040CF87CF5F3FECF3983EDCF38695779503
:102F20006795B795F795E7959F5FC1F7FE2B880FDB
:0E2F3000911D9695879597F90895F894FFCF17
:102F3E0061626364004761696E20004E61736C6F5D
:102F4E0076000000000000000000000102020303F2
:102F5E00030304040404040404040505050505051F
:102F6E0005050505050505050505060606060606FD
:102F7E0006060606060606060606060606060606E3
:102F8E0006060606060606060606070707070707CD
:102F9E0007070707070707070707070707070707B3
:102FAE0007070707070707070707070707070707A3
:102FBE000707070707070707070707070707070793
:102FCE00070707070707070707070808080808087D
:102FDE000808080808080808080808080808080863
:102FEE000808080808080808080808080808080853
:102FFE000808080808080808080808080808080843
:10300E000808080808080808080808080808080832
:10301E000808080808080808080808080808080822
:10302E000808080808080808080808080808080812
:10303E000808080808080808080808080808080802
:0A304E000808080808080808080828
:00000001FF
